S01700004763634170706C69636174696F6E312E737265635B
S113000071C000008EC000008CC000008AC00000D7
S113001088C0000086C0000084C0000082C00000C8
S113002080C000007EC000007CC000007AC00000D8
S113003078C0000076C0000074C0000072C00000E8
S113004070C0000052C100006CC000006AC0000013
S113005068C0000066C0000064C0000062C0000008
S113006060C000005EC000005CC000005AC0000018
S113007058C0000056C0000054C0000052C0000028
S113008050C000004EC000004CC000004AC0000038
S113009048C0000046C0000044C0000042C0000048
S11300A040C000003EC000003CC000003AC0000058
S11300B038C0000036C0000034C0000032C0000068
S11300C030C000002EC000002CC000002AC0000078
S11300D028C0000026C0000024C0000022C0000088
S11300E020C0000011241FBECFEFD1E2DEBFCDBF80
S11300F000E00CBF12E0A0E0B2E0E2E4F9E000E0CE
S11301000BBF02C007900D92A230B107D9F72BE0C4
S1130110A2E0B2E001C01D92A83FB207E1F7FDD30F
S11301200EC46ECFFFCFFF93FCB7FF93FFB7F894D5
S1130130FF93EF93DF93CF93BF93AF939F938F93EB
S11301407F936F935F934F933F932F931F930F93DB
S1130150FF92EF92DF92CF92BF92AF929F928F92D3
S11301607F926F925F924F923F922F921F920F92C3
S11301708DB79EB79093F50B8093F40BE091F60B3B
S1130180F091F70BF395808191819EBF8DBF0F9005
S11301901F902F903F904F905F906F907F908F9023
S11301A09F90AF90BF90CF90DF90EF90FF900F9112
S11301B01F912F913F914F915F916F917F918F91FB
S11301C09F91AF91BF91CF91DF91EF91FF91FFBFCD
S11301D0FF91FCBFFF910895FF93FCB7FF93FFB716
S11301E0F894FF93EF93DF93CF93BF93AF939F93D1
S11301F08F937F936F935F934F933F932F931F93AB
S11302000F93FF92EF92DF92CF92BF92AF929F92A1
S11302108F927F926F925F924F923F922F921F9292
S11302200F92E091F60BF091F70B8DB79EB7F39513
S1130230918380838091F40B9091F50B9EBF8DBFC9
S11302400F901F902F903F904F905F906F907F90F2
S11302508F909F90AF90BF90CF90DF90EF90FF90E2
S11302600F911F912F913F914F915F916F917F91CA
S11302708F919F91AF91BF91CF91DF91EF91FF91BA
S1130280FFBFFF91FCBFFF910895FC01DB01A95F53
S1130290BE4F1D921C9280819181892B19F4718328
S11302A0608306C0A281B381A95FBE4F6D937C9326
S11302B0738362830895CF93CFB7F89483E08093D8
S11302C036028ADFCFBFCF910895DC018D919C91D6
S11302D01197009749F0FC01E95FFE4F20813181BD
S11302E02D933C93118210820895FF93FCB7FF93E2
S11302F0FFB7F894F068FF93EF93DF93CF93BF9326
S1130300AF939F938F937F936F935F934F933F9399
S11303102F931F930F93FF92EF92DF92CF92BF928E
S1130320AF929F928F927F926F925F924F923F9281
S11303302F921F920F92E091F60BF091F70B8DB76D
S11303409EB7F395918380838091F40B9091F50B84
S11303509EBF8DBF81E0809336028091F40B909113
S1130360F50B9EBF8DBF0F901F902F903F904F9025
S11303705F906F907F908F909F90AF90BF90CF9041
S1130380DF90EF90FF900F911F912F913F914F912C
S11303905F916F917F918F919F91AF91BF91CF9119
S11303A0DF91EF91FF91FFBFFF91FCBFFF91089593
S11303B0F89480E884B990910002963068F49091A2
S11303C0000285B92FE788E391E0215080409040F6
S11303D0E1F700C00000F6CF909100029091000276
S11303E085B92FE788E391E0215080409040E1F700
S11303F000C00000F6CF8091240290912502892B41
S113040009F48DC080912E02882329F084E292E0C1
S11304105CDFBC0102C06FED7AE0FB01E752FF4FE5
S1130420108280E87E9680833396108280912A021F
S113043090912B023196908380912A0290912B0205
S113044031968083319610828BE591E031969083CA
S1130450319680833196CB0189529F4F918380835B
S113046082E03396808380912C0290912D02319604
S11304709183808380912E023296808380912F0213
S11304803497808380913002909131023996918320
S113049080838091320290913302329691838083DB
S11304A08091340290913502DB01A15FBE4F119619
S11304B09C938E9320910602309107021296821B20
S11304C0930B8D939C938081918136969183808345
S11304D080912E02823039F08330E9F0813011F5B9
S11304E080E292E01AC08091020290910302019688
S11304F090930302809302028830910540F4FC013A
S1130500EE0FFF1FE85FFD4F718360830BC08CE02B
S1130510809300024DDF88E192E0B7DE03C080E003
S113052090E0089581E090E0089510928000809119
S11305308100826080938100EAE3F3E0A8E0B2E006
S113054010821D921D92CF01429695838483EB5EA7
S1130550FE4F2AE0ED3CF20799F710921702109231
S113056016021092D20A1092D10AC7E3D2E0D093B5
S11305702502C09324028AEC99E090932702809389
S1130580260282E990E090932B0280932A02109233
S11305902E0231DF8BE794E090932B0280932A02A2
S11305A083E080932E0227DFD093F70BC093F60BE2
S11305B081E080933A0388E192E087DE80916F00C6
S11305C0826080936F0080E197E29093890080932A
S11305D08800109285001092840082E086BBCC24AF
S11305E0C3949FEDE92E9AE0F92E22E0D22E30E258
S11305F0B32E8091F60B9091F70BFC01ED5FFE4F4B
S11306002081213019F48F5D9A4059F580911802A8
S113061090911902892B19F088E192E008C0809129
S11306201C0290911D02892B41F08CE192E04DDE79
S11306309093F70B8093F60B0DC08091200290915C
S11306402102892B19F080E292E0F1CFF092F70BAE
S1130650E092F60BE091F60BF091F70BED5FFE4F95
S1130660C08261DD10913602123009F484C0C09159
S1130670F60BD091F70B133030F4112309F4F1C0C9
S1130680113051F0EAC0143009F4D3C008F4B1C0F9
S1130690153009F4E6C0E1C080910602909107028A
S11306A001969093070280930602809184009091B2
S11306B085009093050280930402209799F0FE012F
S11306C0ED5FFE4F8081813069F433968081823002
S11306D049F4C35FDE4F88819981009731F0019717
S11306E09983888308E012E02EC088E0B7C0B5B8CB
S11306F0C081D1814E01FFEE8F1AFEEF9F0AF401F3
S113070080819181019791838083892BA9F43E97FD
S1130710D082BE018CE192E0B8DDFE01E55FFE4FC0
S113072080819181F401918380833296C35FDE4F8F
S1130730888199819183808315B80E5F1F4FF2E001
S113074008311F0731F0F80180819181892B79F6F6
S1130750F4CF6091F60B7091F70BFB01EA5FFE4F4B
S11307608081813009F07DC033978081813009F028
S113077078C0D0823BC03FDE909329028093280248
S11307808091280290912902892B09F46AC08091F2
S11307902E026091F60B7091F70B833039F4FB0154
S11307A0EA5FFE4F8081833009F05EC0FB01EA5F9F
S11307B0FE4F8081813009F054C080912E0233971E
S11307C0833009F4D08240912E02423061F42091AA
S11307D03402309135028091060290910702281765
S11307E0390709F4408380818230D9F580E292E0B0
S11307F00FC02AE0CF3DD207A1F1FE01ED5FFE4F0D
S1130800108233968081823029F0BE0184E292E026
S11308103CDD27C0E8E0F2E080819181C817D90768
S113082011F411821082329682E0E831F807A1F7C0
S1130830ECCFFE01EA5FFE4F8081813031F08330DE
S113084041F4BE0188E192E003C0BE0180E292E07F
S11308501CDDCD5FDE4FD88204C08AE080930002A5
S1130860A7DD10923602C5CEFB01ED5FFE4F10836B
S11308709DCFCF93DF931F92CDB7DEB78FB7898318
S1130880F89484E080933602A7DC89818FBF0F90AF
S1130890DF91CF91089585B1811103C080E485B9BA
S11308A001C015B8E6CF0F931F93CF93CFB7F89439
S11308B090932B0280932A0270932D0260932C0252
S11308C082E080932E0250933102409330023093A1
S11308D03302209332021093350200933402809342
S11308E036027ADC8091280290912902CFBFCF9101
S11308F01F910F9108950F931F9304E610E028E2CF
S113090030E042E350E060E070E08BE494E0CBDF61
S113091080E090E01F910F91089580EE84B915B89E
S113092084E690E02FE738E341E021503040404036
S1130930E1F700C0000001970097A1F7F6DDF894F5
S1050940FFCFE3
S10509420600A9
S9030000FC
