:1000000071C000008EC000008CC000008AC00000DB
:1000100088C0000086C0000084C0000082C00000CC
:1000200080C000007EC000007CC000007AC00000DC
:1000300078C0000076C0000074C0000072C00000EC
:1000400070C0000052C100006CC000006AC0000017
:1000500068C0000066C0000064C0000062C000000C
:1000600060C000005EC000005CC000005AC000001C
:1000700058C0000056C0000054C0000052C000002C
:1000800050C000004EC000004CC000004AC000003C
:1000900048C0000046C0000044C0000042C000004C
:1000A00040C000003EC000003CC000003AC000005C
:1000B00038C0000036C0000034C0000032C000006C
:1000C00030C000002EC000002CC000002AC000007C
:1000D00028C0000026C0000024C0000022C000008C
:1000E00020C0000011241FBECFEFD1E2DEBFCDBF84
:1000F00000E00CBF12E0A0E0B2E0EEE0FAE000E0C9
:100100000BBF02C007900D92A230B107D9F72BE0C8
:10011000A2E0B2E001C01D92A83FB207E1F763D4AC
:1001200074C46ECFFFCFFF93FCB7FF93FFB7F89473
:10013000FF93EF93DF93CF93BF93AF939F938F93EF
:100140007F936F935F934F933F932F931F930F93DF
:10015000FF92EF92DF92CF92BF92AF929F928F92D7
:100160007F926F925F924F923F922F921F920F92C7
:100170008DB79EB79093F50B8093F40BE091F60B3F
:10018000F091F70BF395808191819EBF8DBF0F9009
:100190001F902F903F904F905F906F907F908F9027
:1001A0009F90AF90BF90CF90DF90EF90FF900F9116
:1001B0001F912F913F914F915F916F917F918F91FF
:1001C0009F91AF91BF91CF91DF91EF91FF91FFBFD1
:1001D000FF91FCBFFF910895FF93FCB7FF93FFB71A
:1001E000F894FF93EF93DF93CF93BF93AF939F93D5
:1001F0008F937F936F935F934F933F932F931F93AF
:100200000F93FF92EF92DF92CF92BF92AF929F92A5
:100210008F927F926F925F924F923F922F921F9296
:100220000F92E091F60BF091F70B8DB79EB7F39517
:10023000918380838091F40B9091F50B9EBF8DBFCD
:100240000F901F902F903F904F905F906F907F90F6
:100250008F909F90AF90BF90CF90DF90EF90FF90E6
:100260000F911F912F913F914F915F916F917F91CE
:100270008F919F91AF91BF91CF91DF91EF91FF91BE
:10028000FFBFFF91FCBFFF910895FC01DB01A95F57
:10029000BE4F1D921C9280819181892B19F471832C
:1002A000608306C0A281B381A95FBE4F6D937C932A
:1002B000738362830895CF93CFB7F89483E08093DC
:1002C00036028ADFCFBFCF910895DC018D919C91DA
:1002D0001197009749F0FC01E95FFE4F20813181C1
:1002E0002D933C93118210820895FF93FCB7FF93E6
:1002F000FFB7F894F068FF93EF93DF93CF93BF932A
:10030000AF939F938F937F936F935F934F933F939D
:100310002F931F930F93FF92EF92DF92CF92BF9292
:10032000AF929F928F927F926F925F924F923F9285
:100330002F921F920F92E091F60BF091F70B8DB771
:100340009EB7F395918380838091F40B9091F50B88
:100350009EBF8DBF81E0809336028091F40B909117
:10036000F50B9EBF8DBF0F901F902F903F904F9029
:100370005F906F907F908F909F90AF90BF90CF9045
:10038000DF90EF90FF900F911F912F913F914F9130
:100390005F916F917F918F919F91AF91BF91CF911D
:1003A000DF91EF91FF91FFBFFF91FCBFFF91089597
:1003B000F89480E884B990910002963068F49091A6
:1003C000000285B92FE788E391E0215080409040FA
:1003D000E1F700C00000F6CF90910002909100027A
:1003E00085B92FE788E391E0215080409040E1F704
:1003F00000C00000F6CF8091240290912502892B45
:1004000009F48DC080912E02882329F084E292E0C5
:100410005CDFBC0102C06FED7AE0FB01E752FF4FE9
:10042000108280E87E9680833396108280912A0223
:1004300090912B023196908380912A0290912B0209
:1004400031968083319610828BE591E031969083CE
:10045000319680833196CB0189529F4F918380835F
:1004600082E03396808380912C0290912D02319608
:100470009183808380912E023296808380912F0217
:100480003497808380913002909131023996918324
:1004900080838091320290913302329691838083DF
:1004A0008091340290913502DB01A15FBE4F11961D
:1004B0009C938E9320910602309107021296821B24
:1004C000930B8D939C938081918136969183808349
:1004D00080912E02823039F08330E9F0813011F5BD
:1004E00080E292E01AC0809102029091030287306C
:1004F000910568F4FC01EE0FFF1FE85FFD4F71836B
:100500006083019690930302809302020BC08CE0FB
:10051000809300024DDF88E192E0B7DE03C080E007
:1005200090E0089581E090E008951092800080911D
:100530008100826080938100EAE3F3E0A8E0B2E00A
:1005400010821D921D92CF01429695838483EB5EAB
:10055000FE4F2AE0ED3CF20799F710921702109235
:1005600016021092D20A1092D10AC7E3D2E0D093B9
:100570002502C09324028AEC99E09093270280938D
:10058000260282E990E090932B0280932A02109237
:100590002E0231DF8CED94E090932B0280932A029F
:1005A00083E080932E0227DFD093F70BC093F60BE6
:1005B00081E080933A0388E192E087DE80916F00CA
:1005C000826080936F0080E197E29093890080932E
:1005D0008800109285001092840082E086BB8824F7
:1005E00083944FEDC42E4AE0D42E52E0952E60E85D
:1005F000762E8091F60B9091F70BFC01ED5FFE4F8C
:100600002081213019F48F5D9A4059F580911802AC
:1006100090911902892B19F088E192E008C080912D
:100620001C0290911D02892B41F08CE192E04DDE7D
:100630009093F70B8093F60B0DC080912002909160
:100640002102892B19F080E292E0F1CFD092F70BD2
:10065000C092F60BE091F60BF091F70BED5FFE4FB9
:10066000808261DD10913602123009F480C0C091A1
:10067000F60BD091F70B133030F4112309F401C1BC
:10068000113051F0FAC0143009F4DAC008F4AEC0E9
:10069000153009F4F6C0F1C080910602909107026E
:1006A00001969093070280930602809184009091B6
:1006B00085009093050280930402209791F0FE013B
:1006C000ED5FFE4F8081813061F43396808182300E
:1006D00041F4379680819181009741F00197918391
:1006E000808338E0A32E32E0B32E2AC088E0C6C053
:1006F0007801FFEEEF1AFEEFFF0AF701808191818A
:10070000019791838083892BB1F43E979082B80141
:100710008CE192E0BADDF801E55FFE4F80819181C6
:10072000F701918380833296D801A35FBE4F8D91EC
:100730009C9191838083F8E1AF16F2E0BF0641F00F
:10074000F501019111915F010115110589F6F3CFB2
:10075000FE01EA5FFE4F8081813009F092C033973D
:100760008081813009F08DC09082BE013CC043DEA3
:100770009093290280932802809128029091290267
:10078000892B09F47EC080912E026091F60B709146
:10079000F70B833039F4FB01EA5FFE4F8081833031
:1007A00009F072C0FB01EA5FFE4F8081813009F0E1
:1007B00068C080912E023397833009F49082409173
:1007C0002E02423061F42091340230913502809142
:1007D0000602909107022817390709F440838081A7
:1007E000823009F04EC080E292E014C02AE0CF3D92
:1007F000D20709F446C0FE01ED5FFE4F1082CA5FCA
:10080000DE4F8881823041F06091F60B7091F70BDA
:1008100084E292E03ADD35C0E8E0F2E02091F60BA8
:100820003091F70B808191812817390719F475B839
:1008300011821082329682E0E831F80779F7E4CF2E
:10084000FE01EA5FFE4F8081823061F0833031F03B
:10085000813079F4BE0180E292E00AC0BE0188E1F5
:1008600092E006C0FE01EF5EFE4F1182108201C0D1
:100870000CDDCD5FDE4F988204C08AE080930002D9
:1008800097DD10923602B5CEFB01ED5FFE4F10836F
:1008900089CFCF93DF931F92CDB7DEB78FB7898310
:1008A000F89484E08093360297DC89818FBF0F90A3
:1008B000DF91CF91089580E285B915B8EACF2F99DD
:1008C00003C080E885B901C015B8E3CFCF93CFB797
:1008D000F89490932B0280932A0270932D026093D8
:1008E0002C0283E080932E0282E08093360274DC37
:1008F0008091280290912902CFBFCF91089580E086
:1009000090E0C0E48436910574F425B1211102C051
:10091000C5B901C015B8EFE3FCE93197F1F700C0A4
:1009200000000196EFCF60E070E08BE594E0CEDF51
:1009300080E090E0E7CF0F931F93CF93CFB7F89469
:1009400090932B0280932A0270932D0260932C02C5
:1009500082E080932E025093310240933002309314
:1009600033022093320210933502009334028093B5
:10097000360232DC8091280290912902CFBFCF91BC
:100980001F910F910895CF93CFB7F89490932B02B6
:1009900080932A0270932D0260932C0281E0809351
:1009A0002E0282E08093360217DC8091280290911B
:1009B0002902CFBFCF9108950F931F9360E070E09D
:1009C0008FE794E0E0DF0CE810E024E630E047E653
:1009D00050E060E070E08FE594E0ADDF80E090E013
:1009E0001F910F91089580EE84B915B884E690E0C8
:1009F0002FE738E341E0215030404040E1F700C0AC
:0E0A0000000001970097A1F790DDF894FFCF5A
:020A0E000600E0
:00000001FF
